:100000000C944E000C94AF0B0C94AF0B0C94AF0BF4
:100010000C94AF0B0C94AF0B0C94AF0B0C94F40836
:100020000C94AF0B0C94AF0B0C94AF0B0C94AF0B68
:100030000C94AF0B0C94AF0B0C94AF0B0C94AF0B58
:100040000C94AF0B0C94AF0B0C94AF0B0C94AF0B48
:100050000C94E7090C94AF0B0C94AF0B0C94AF0B02
:100060000C94AF0B0C94AF0B0C94AF0B0C94AF0B28
:100070000C94AF0B0C94AF0B0C94AF0B0C94AF0B18
:100080000C94AF0B0C94AF0B0C94AF0B0C94AF0B08
:100090003000300C001770300C302A8011241FBE45
:1000A000CFEFCDBFDFE3DEBFE0E9F0E040E017C017
:1000B000B591A59135912591059107FD0CC09591BC
:1000C0008591EF01F92FE82F05900D92A217B30744
:1000D000D9F7FE0104C01D92A217B307E1F7EC396E
:1000E000F40731F70E944D050C94450BF894FFCFAF
:1000F0004F925F926F927F928F929F92AF92BF9238
:10010000CF92DF92EF92FF92CF93DF93CDB7DEB71E
:100110002597CDBFDEBF813D27E0920714F080ED2B
:1001200097E0803338EF930714F480E398EF262F9D
:10013000372F2E32310514F02DE230E0233D4FEF02
:10014000340714F423ED3FEF99234CF491958195F6
:1001500091093195219531095FEF5D8302C041E03E
:100160004D83409122305091233040912030509166
:100170002130092E000CAA0BBB0B40911830509176
:10018000193060911A3070911B30481759076A076F
:100190007B07A4F4409118305091193060911A30C7
:1001A00070911B3048535F4F6F4F7F4F4093183013
:1001B0005093193060931A3070931B30409118306F
:1001C0005091193060911A3070911B308417950747
:1001D000A607B707A4F48091183090911930A09128
:1001E0001A30B0911B30885C9109A109B109809344
:1001F000183090931930A0931A30B0931B3080912F
:10020000183090911930A0911A30B0911B30813D77
:100210009740A105B10564F080ED97E0A0E0B0E063
:100220008093183090931930A0931A30B0931B30FC
:100230008091183090911930A0911A30B0911B30F4
:100240008033984FAF4FBF4F64F480E398EFAFEF28
:10025000BFEF8093183090931930A0931A30B09369
:100260001B30C901032E000CAA0BBB0B40911430AC
:10027000509115306091163070911730481759071A
:100280006A077B07A4F440911430509115306091B7
:100290001630709117304E5F5F4F6F4F7F4F409316
:1002A000143050931530609316307093173040918E
:1002B00014305091153060911630709117308417BA
:1002C0009507A607B7079CF48091143090911530DC
:1002D000A0911630B09117300297A109B10980930F
:1002E000143090931530A0931630B093173080914E
:1002F000143090911530A0911630B09117308E9730
:10030000A105B10564F08DE290E0A0E0B0E080933B
:10031000143090931530A0931630B093173080911D
:10032000143090911530A0911630B09117308D9700
:10033000A105B10564F48DE290E0A0E0B0E0809307
:10034000143090931530A0931630B09317308CE290
:10035000829F6001839FD00C11240D2C000CEE08AD
:10036000FF088091183090911930A0911A30B09107
:100370001B30A7019601280F391F4A1F5B1FA5E3F9
:10038000B2E80E943A0B20EA3FE040E050E00E94D1
:10039000DA0A29013A0149015A01809118309091F5
:1003A0001930A0911A30B0911B309C01AD012C196D
:1003B0003D094E095F09A5E3B2E80E943A0B20EA25
:1003C0003FE040E050E00E94DA0A29833A834B8301
:1003D0005C8369017A011414150416041704A4F44B
:1003E00085E392E8A0E0B0E0BC01CD016419750995
:1003F0008609970923E030E040E050E00E94DA0AE5
:10040000820E931EA41EB51E1C141D041E041F0480
:10041000E4F485E392E8A0E0B0E0BC01CD012981DD
:100420003A814B815C81621B730B840B950B23E03B
:1004300030E040E050E00E94DA0AC980DA80EB80C8
:10044000FC80C20ED31EE41EF51E36E3831632E88E
:100450009306A104B10444F00F2EF5E38F2EF2E8C9
:100460009F2EA12CB12CF02D46E3C41642E8D406F1
:10047000E104F10444F00F2EF5E3CF2EF2E8DF2E75
:10048000E12CF12CF02DBB201CF4812C912C54017B
:100490008092380A9092390AFF201CF4C12CD12C8A
:1004A0007601C0923A0AD0923B0A5D81513039F40C
:1004B000E0E6F4E082E0858380E4868306C0E0E63F
:1004C000F4E080E4858382E086832596CDBFDEBF9D
:1004D000DF91CF91FF90EF90DF90CF90BF90AF90E2
:0E04E0009F908F907F906F905F904F90089547
:1004EE004F925F926F927F928F929F92AF92BF9236
:1004FE00CF92DF92EF92FF921F93CF93DF936B0118
:10050E007C01DC01CB018827B7FD83959927AA27AB
:10051E00BB27182F46015701E894B7F881149104B0
:10052E0080E8A8068CE4B806A0F091E08916910444
:10053E0090E8A9069FE7B90608F020C120E030E058
:10054E0040E853E06AED7FE089EC9FE30E94720B76
:10055E0011C181149104E0EEAE06EEE3BE0658F42E
:10056E0081149104F0E8AF06F9E3BF0608F406C162
:10057E00CFEFDFEF89C0C701B6010E94B10B6B014F
:10058E007C018114910488E9A8068FE3B80608F06F
:10059E0045C08114910490E3A9069FE3B90608F5BE
:1005AE00A7019601C701B6010E94720B20E030E050
:1005BE0040E85FE30E94710B4B015C0120E030E0EC
:1005CE0040E050E4C701B6010E94720B9B01AC01E2
:1005DE00C501B4010E94A40B6B017C01C0E0D0E008
:1005EE0053C020E030E040E85FE3C701B6010E944F
:1005FE00710B4B015C0120E030E040E85FE3C70186
:10060E00B6010E94720B9B01AC01C501B4010E94A0
:10061E00A40B6B017C01C1E0D0E036C081149104C3
:10062E00ECE1AE06E0E4BE0618F520E030E040EC6A
:10063E005FE3C701B6010E94710B4B015C0120E024
:10064E0030E040EC5FE3C701B6010E94A80B20E04A
:10065E0030E040E85FE30E94720B9B01AC01C501E4
:10066E00B4010E94A40B6B017C01C2E0D0E00CC06F
:10067E00A701960160E070E080E89FEB0E94A40B5A
:10068E006B017C01C3E0D0E0A7019601C701B60162
:10069E000E94A80B2B013C019B01AC010E94A80BF0
:1006AE004B015C0125E23CEA4CE75DE30E94A80B9E
:1006BE002DE035EF41E15EE30E94720BA50194013E
:1006CE000E94A80B29EA3AEA4AEA5EE30E94720BFC
:1006DE00A30192010E94A80B2B013C0127E432E1F9
:1006EE004AED5DEBC501B4010E94A80B28E93AEC76
:1006FE004CE45EE30E94710BA50194010E94A80BCD
:10070E009B01AC01CF3FFFEFDF0779F4C301B201CC
:10071E000E94720BA70196010E94A80B9B01AC01CF
:10072E00C701B6010E94710B2BC0CC0FDD1FCC0F81
:10073E00DD1FCE018E53994A5C01C301B2010E94A6
:10074E00720BA70196010E94A80BCE54D94A28819C
:10075E0039814A815B810E94710BA70196010E942B
:10076E00710B9B01AC01F5016081718182819381D6
:10077E000E94710B112321F0905802C0C701B601DF
:10078E00DF91CF911F91FF90EF90DF90CF90BF90B0
:10079E00AF909F908F907F906F905F904F90089545
:1007AE00CF92DF92EF92FF920F931F93CF93DF932F
:1007BE00EC01888100E014E0F80185838AE090E086
:1007CE000E94C30A8881F8018683E0E8FAE0128667
:1007DE00138681E080832981E0E0F4E0A0E8BAE0AE
:1007EE000DC01A968D919C911B978115904330F0F8
:1007FE001092800AC12CD12C76018AC0808582236A
:10080E0081F3E0E8FAE010821286138681E080839D
:10081E002981E0E0F4E0A0E8BAE00DC01A968D91CF
:10082E009C911B978115904330F01092800AC12C39
:10083E00D12C76016DC08085822381F7E0E8FAE045
:10084E00108222853385ABEABAEA0E94140B969584
:10085E008795809326309093273060912630709143
:10086E00273080E090E00E947B092BE734E14EEACE
:10087E005EE30E94A80B20E030E040E05FE30E94C0
:10088E00A80B6B017C0120E030E0A9010E949A0BBD
:10089E0088239CF120E030E040EA51E4C701B60124
:1008AE000E949F0B18166CF120E030E040E751E4F7
:1008BE00C701B6010E949F0B18163CF120E030E0F4
:1008CE0040E85FE3C701B6010E949F0B181604F5BE
:1008DE0020E030E040EA50E4C701B6010E949A0BD6
:1008EE008823B4F4A701960160E070E080EA90E4FA
:1008FE000E94710B6B017C010BC0C12CD12C7601B7
:10090E0007C0C12CD12C760103C0C12CD12C76018D
:10091E00CA82DB82EC82FD8288EE93E00E94C30ADB
:10092E00DF91CF911F910F91FF90EF90DF90CF90BD
:02093E0008951A
:10094000A4E0B0E0E6EAF4E00C949C0A8B019C0180
:100950003F770B3D4FE0140749E424074FE334078A
:1009600048F40115110540E8240749E3340708F469
:1009700087C071C06B017C01CC24F7FCC394DD24DB
:10098000EE24FF24023D43E514074BE7240740E42F
:10099000340720F5043E4BEC140746E1240740E4FD
:1009A000340760F02BED3FE049E450E4CC2019F02F
:1009B0000E94720B53C00E94710B50C0CC2039F0C2
:1009C0002BED3FE049EC5FE30E94720B56C09B01A8
:1009D000AC016BED7FE089EC9FE322C0063D41E373
:1009E000140742EE240740E43407E8F4003E4DEEDD
:1009F00014074FEA240740E4340760F02BED3FE092
:100A000049EC50E4CC2019F00E94720B24C00E94E3
:100A1000710B21C0C110905824EE3BEC46E950E424
:100A20000E94710B2AC00115110540E824074FE709
:100A3000340758F5AE014F5F5F4F0E944407282FDF
:100A4000237069817A818B819C81213059F018F063
:100A5000223021F00EC00E945B061BC00E945B0684
:100A6000905817C0DC01CB01B05889839A83AB83BF
:100A7000BC8369817A818B819C810E94E30509C0D6
:100A800060E070E080E89FE304C06FEF7FEF8FEFDE
:0A0A90009FE72496E8E00C94B50AF5
:100A9A000E94230B0E942F0B0E94780A0E94F10ADF
:100AAA000E94500B7894C4E6809129308823E1F3A0
:100ABA0080E090E30E94D70386E090E30E94D70388
:100ACA008091023090910330A0910430B0910530AA
:100ADA008093103090931130A0931230B09313305A
:100AEA0060911030709111308091123090911330D2
:100AFA0020E030E040E85FEB0E949A0B8823A1F2E5
:100B0A008091083090910930A0910A30B0910B3051
:100B1A0080930C3090930D30A0930E30B0930F3029
:100B2A0060910C3070910D3080910E3090910F30A1
:100B3A0020E030E040E85FEB0E949A0B882309F43A
:100B4A00B3CF20910C3030910D3040910E3050913E
:100B5A000F30609110307091113080911230909165
:100B6A0013300E94390980931E3090931F301092DF
:100B7A001E3010921F3000911E3010911F302091AC
:100B8A000C3030910D3040910E3050910F30609101
:100B9A0010307091113080911230909113300E9470
:100BAA00D1069C01C29FC001C39F900D112480935E
:0C0BBA001C3090931D301092293076CF33
:100BC6004F925F926F927F928F929F92AF92BF9257
:100BD600CF92DF92EF92FF92CF93DF9300D000D0B7
:100BE600CDB7DEB74B015C019B01AC010E94A80B9F
:100BF6006B017C019B01AC01C501B4010E94A80BED
:100C060069837A838B839C832CE33CE646E356E335
:100C1600C701B6010E94A80B2FEC37E040E559E367
:100C26000E94710B2B013C01A7019601C701B60179
:100C36000E94A80B29813A814B815C810E94A80BF6
:100C46009B01AC01C301B2010E94A80B2B013C0120
:100C560024E838E848E05CE3C701B6010E94A80B27
:100C66002BEA3AEA4AE25EE30E94710B29813A8155
:100C76004B815C810E94A80BA50194010E94720B16
:100C86009B01AC01C301B2010E94720B2496CDBF39
:100C9600DEBFDF91CF91FF90EF90DF90CF90BF90B6
:100CA600AF909F908F907F906F905F904F90089538
:100CB6004F925F926F927F928F929F92AF92BF9266
:100CC600CF92DF92EF92FF92CF93DF9300D000D0C6
:100CD600CDB7DEB79B01AC010E94A80B6B017C016E
:100CE6009B01AC010E94A80B2B013C0120E030E0E7
:100CF60040E05FEBC701B6010E94A80B20E030E0A0
:100D060040E85FE30E94720B4B015C012FE93AEA6F
:100D16004AE25DE3C301B2010E94A80B9B01AC014C
:100D2600C501B4010E94720B4B015C0127E13AE94F
:100D36004CEC57E3C701B6010E94A80B2FE334E041
:100D460046EB5AE30E94710B69837A838B839C83FB
:100D5600A3019201C701B6010E94A80B9B01AC0139
:100D660069817A818B819C810E94A80B9B01AC01D1
:100D7600C501B4010E94720B2496CDBFDEBFDF9180
:100D8600CF91FF90EF90DF90CF90BF90AF909F9064
:0C0D96008F907F906F905F904F900895B9
:100DA2004F925F926F927F928F929F92AF92BF9279
:100DB200CF92DF92EF92FF920F931F93CF93DF9325
:100DC2006B017C0149015A01B801110F880B990B83
:100DD2000E947D0925E33AEF4EE85CE30E94A80BEE
:100DE2000E94A0042B013C01A5019401C701B60198
:100DF2000E94720B20E030E040E05FE30E94A80B0B
:100E0200A30192010E94A80B20E030E040EA50E4E6
:100E12000E94710B062F172FD82FC92F20E030E028
:100E2200A9010E949A0B88236CF020E030E040E296
:100E320051E4602F712F8D2F9C2F0E949F0B18164B
:100E420034F009C000E010E0D0E0C0E004C000E0EF
:100E520010E0D0E2C1E4602F712F8D2F9C2F0E94F1
:100E6200780BCB01DF91CF911F910F91FF90EF9003
:100E7200DF90CF90BF90AF909F908F907F906F90B8
:060E82005F904F900895FF
:100E88004F925F926F927F928F929F92AF92BF9292
:100E9800CF92DF92EF92FF921F93CF93DF93EA01F5
:100EA8006B017C01CC24F7FCC394DD24EE24FF24E1
:100EB8001C2D0E94B10B2B013C0123E839EF42E2C3
:100EC8005FE30E94A80B20E030E040E05FE30E946F
:100ED800720B0E94780B6B017C010E947D094B010B
:100EE8005C012AED3FE049EC5FE30E94A80B9B01FF
:100EF800AC01C301B2010E94710B2B013C0123EA32
:100F080035E848E852E3C501B4010E94A80B9B01EB
:100F1800AC01C301B2010E94710B112361F0DC0125
:100F2800CB01B05888839983AA83BB8388279927E4
:100F38008C199D0905C0688379838A839B83C601C0
:100F4800DF91CF911F91FF90EF90DF90CF90BF90EE
:100F5800AF909F908F907F906F905F904F90089583
:100F680010C00E94860B58F00E947F0B40F029F4B5
:100F78005F3F29F00C94940B51110C948E0B0C9438
:100F8800AC0B0E94340A68F39923B1F3552391F30B
:100F9800951B550BBB27AA2762177307840738F0E0
:100FA8009F5F5F4F220F331F441FAA1FA9F335D03D
:100FB8000E2E3AF0E0E832D091505040E695001CF1
:100FC800CAF72BD0FE2F29D0660F771F881FBB1FAB
:100FD800261737074807AB07B0E809F0BB0B802D89
:100FE800BF01FF2793585F4F3AF09E3F510578F0B5
:100FF8000C94940B0C948E0B5F3FE4F3983ED4F35F
:10100800869577956795B795F7959F5FC9F7880F88
:10101800911D9695879597F90895E1E0660F771FDA
:10102800881FBB1F621773078407BA0720F0621B6B
:0E103800730B840BBA0BEE1F88F7E09508953A
:101046000FC00E947F0B38F00E94860B20F095237C
:1010560011F00C94940B0C94AC0B11240C948E0B85
:101066000E94340A70F3959FC1F3950F50E0551F07
:10107600629FF001729FBB27F00DB11D639FAA27E7
:10108600F00DB11DAA1F649F6627B00DA11D661F36
:10109600829F2227B00DA11D621F739FB00DA11D57
:1010A600621F839FA00D611D221F749F3327A00D11
:1010B600611D231F849F600D211D822F762F6A2FAD
:1010C60011249F5750409AF0F1F088234AF0EE0F12
:1010D600FF1FBB1F661F771F881F91505040A9F73F
:1010E6009E3F510580F00C94940B0C948E0B5F3F41
:1010F600E4F3983ED4F3869577956795B795F7957B
:10110600E7959F5FC1F7FE2B880F911D96958795F2
:0411160097F90895A8
:10111A0011C00E947F0B38F00E94860B20F039F430
:10112A009F3F19F426F40C94AC0B0EF4E095E7FB00
:10113A000C94940BE92F0E94340A58F3BA176207E9
:10114A0073078407950720F079F4A6F50C948D0BA4
:10115A000EF4E0950B2EBA2FA02D0B01B9019001C8
:10116A000C01CA01A0011124FF27591B99F0593F0C
:10117A0050F4503E68F11A16F040A22F232F342F54
:10118A004427585FF3CF469537952795A795F040A2
:10119A005395C9F77EF41F16BA0B620B730B840BB7
:1011AA00BAF09150A1F0FF0FBB1F661F771F881F6F
:1011BA00C2F70EC0BA0F621F731F841F48F48795C7
:1011CA0077956795B795F7959E3F08F0B0CF9395B9
:0E11DA00880F08F09927EE0F979587950895D6
:1011E8001F920F920FB60F9211242F933F934F9394
:1011F8005F936F937F938F939F93AF93BF93EF9377
:10120800FF9381E080930B0A809128308F5F809351
:101218002830809128308230B9F460911E30709166
:101228001F3080911C3090911D300E9478001092E0
:1012380022301092233010922030109221301092D8
:10124800283081E080932930FF91EF91BF91AF91D1
:101258009F918F917F916F915F914F913F912F91C6
:0A1268000F900FBE0F901F90189515
:101272000F931F93CF93DF930E94710B20E030E016
:1012820040E450E40E94A40B0E94770220EE3EE26A
:1012920045E652E40E94A80B062F172FD82FC92F1C
:1012A20020E030E044E352EC0E949A0B88236CF079
:1012B20020E030E044E352E4602F712F8D2F9C2F09
:1012C2000E949F0B181634F009C000E010E0D4E32E
:1012D200C2EC04C000E010E0D4E3C2E4602F712F3E
:1012E2008D2F9C2F0E94780BCB01DF91CF911F9104
:0412F2000F910895BB
:1012F600E89409C097FB3EF49095809570956195AA
:101306007F4F8F4F9F4F9923A9F0F92F96E9BB275F
:101316009395F695879577956795B795F111F8CFDB
:10132600FAF4BB0F11F460FF1BC06F5F7F4F8F4F46
:101336009F4F16C0882311F096E911C0772321F03C
:101346009EE8872F762F05C0662371F096E8862FD4
:1013560070E060E02AF09A95660F771F881FDAF72B
:0A136600880F9695879597F9089572
:101370000E943C0A88F09F5798F0B92F9927B751DF
:10138000B0F0E1F0660F771F881F991F1AF0BA9529
:10139000C9F714C0B13091F00E948D0BB1E00895EF
:1013A0000C948D0B672F782F8827B85F39F0B93FE1
:1013B000CCF3869577956795B395D9F73EF49095DC
:0E13C0008095709561957F4F8F4F9F4F0895D8
:1013CE008F938FB78F939F938091690485FF0CC085
:1013DE0080E28093690480912230909123300196AF
:1013EE00809322309093233080916904882364F493
:1013FE0080E880936904809120309091213001968D
:10140E0080932030909321309F918F918FBF8F9139
:02141E0018951F
:10142000990F0008550FAA0BE0E8FEEF16161706F5
:10143000E807F907C0F012161306E407F50798F05D
:10144000621B730B840B950B39F40A2661F0232B76
:10145000242B252B21F408950A2609F4A140A695F2
:081460008FEF811D811D08952D
:1014680057FD9058440F551F59F05F3F71F047954D
:10147800880F97FB991F61F09F3F79F08795089532
:10148800121613061406551FF2CF4695F1DF08C051
:10149800161617061806991FF1CF8695710561056E
:0414A8000894089507
:1014AC00A1E21A2EAA1BBB1BFD010DC0AA1FBB1F5C
:1014BC00EE1FFF1FA217B307E407F50720F0A21BCE
:1014CC00B30BE40BF50B661F771F881F991F1A943B
:1014DC0069F760957095809590959B01AC01BD0165
:0414EC00CF0108958F
:1014F00082E08093E405E0E4F4E080818260808310
:10150000808181608083E0E6F4E080818260808376
:10151000808180648083E0E0FAE010AE11AE12AE0C
:0415200013AE089569
:101524002F923F924F925F926F927F928F929F92EF
:10153400AF92BF92CF92DF92EF92FF920F931F93DD
:10154400CF93DF93CDB7DEB7CA1BDB0BCDBFDEBFB6
:021554000994F8
:101556002A88398848885F846E847D848C849B843D
:10156600AA84B984C884DF80EE80FD800C811B814B
:10157600AA81B981CE0FD11DCDBFDEBFED01089581
:101586009C01220F331F820F931FE0E8FAE01286B8
:101596001386109224301092253021E02083228574
:0E15A600338528173907D8F31092800A08956C
:1015B400052E97FB1EF400940E94690B57FD07D07B
:1015C4000E94560A07FC03D04EF40C94690B509504
:0E15D4004095309521953F4F4F4F5F4F089542
:1015E200A0E0B0E38C91E0E0F4E0818311968C916D
:1015F2001197828316968C911697818317968C91F8
:041602008283089542
:10160600092E0394000C11F4882352F0BB0F40F40A
:10161600BF2B11F460FF04C06F5F7F4F8F4F9F4F4A
:02162600089525
:10162800A29FB001B39FC001A39F700D811D11241B
:0E163800911DB29F700D811D1124911D08950A
:10164600E0E0FAE085E392E886A397A381E082874B
:0816560093E391838083089562
:10165E00E0E6F4E080EA828385898260858B878963
:06166E008260878B0895E5
:101674000E94140BA59F900DB49F900DA49F800D04
:06168400911D11240895E0
:10168A00EC010E94B60B0E94B50BCE010E94B70B6B
:06169A00CE010E94B30B1B
:1016A000E0E8FAE08FEF9FEF848795871182108240
:0216B00008959B
:1016B2006937AC3168212233B40F14336821A23365
:1016C2003863ED3EDA0F493F5E987B3FDA0FC93F40
:1016D20090958095709561957F4F8F4F9F4F08959C
:0E16E2005058BB27AA270E948D080C94030BBA
:0E16F0000E94B8096894B1110C948E0B0895F5
:0E16FE0000240A941616170618060906089509
:0E170C0000240A94121613061406050608950A
:0E171A00E894BB2766277727CB0197F908953F
:0C17280097F99F6780E870E060E008958A
:0A1734000E94100A08F481E00895F5
:0A173E000E94100A08F48FEF0895CE
:081748000E94B4070C94030B8E
:081750000E9423080C94030B16
:061758009FEF80EC0895F4
:04175E000C940000E7
:041762009F770895D0
:041766000E94760067
:02176A000895E0
:02176C000895DE
:02176E000895DC
:0C1770001020000000004080000000007D
:00000001FF
